:020000040800F2
:10000000B0050020D1000008C51700089D160008A3
:1000100000000000000000000000000000000000E0
:10002000000000000000000000000000911900081E
:100030000000000000000000C71700089319000826
:10004000E3000008E3000008E3000008E300000804
:10005000E3000008E3000008E3000008E3000008F4
:10006000E3000008E3000008E3000008E3000008E4
:10007000E3000008E3000008E3000008E3000008D4
:10008000E3000008E3000008E3000008E3000008C4
:10009000E3000008E3000008E3000008E3000008B4
:1000A000E3000008E3000008E3000008E3000008A4
:1000B000E3000008E3000008E30000080348854669
:1000C00000F03EFA00480047751F0008B005002008
:1000D0000448804704480047FEE7FEE7FEE7FEE7E6
:1000E000FEE7FEE7251A0008BD00000830B50B4604
:1000F000014600202022012409E00D46D5409D4202
:1001000005D31D469540491B254695404019154687
:10011000521E002DF1DC30BDF0B51FB406460020A4
:1001200082B005464024019100901BE001992246CF
:100130000F46304600F052F9049A059B801A994107
:1001400010D310461946224600F038F9361A8F416E
:100150000197224601200021009F00F02FF9381856
:100160004D4100902046641E0028DFDC019B009872
:100170002946324607B0F0BD03460B439B0703D028
:1001800009E008C9121F08C0042AFAD203E00B785C
:100190000370401C491C521EF9D27047D2B201E0D4
:1001A0000270401C491EFBD270470022F6E710B5D2
:1001B00013460A4604461946FFF7F0FF204610BDD5
:1001C000024670B54A40D30FDB0740002DD04A00ED
:1001D0002AD0010E140E000212020919400A520A16
:1001E0008418E50104465443000A120A2E045043C1
:1001F000A4194219200CC543AA18120C0125AD03FD
:10020000521C521912047F39240400D0521C10438E
:1002100001D44000491EC2B20C06C0092018401C7F
:100220004008802A02D003E0002070BD4008400052
:10023000002900DA0020184370BD0000F0B51FB49B
:1002400088B00B990998002448400999C00F4900CB
:1002500049080991C0070B990090490049080B9182
:1002600009990898A64608431CD00B990A98084398
:1002700018D0099801244000420D4800410D09980A
:1002800024050003000B204309900B980003000B8A
:1002900020430B9050181C4940180022019014462E
:1002A000104605E0002001460DB0F0BD032801DA3C
:1002B000034600E003239C46C11A0AAE0AE05F0031
:1002C00008ADED5B4F00F75B7D430027AA187C412A
:1002D000491C5B1E6145F2DD410004AB5A5221040A
:1002E000120C0A43240C401C0828DFDB0198029002
:1002F0000099704601910090059B049A0799069811
:1003000000F0CBF8D0E700000DFCFFFFC217C10FD3
:10031000504010B54018CA079623002100F077F826
:1003200010BD000070B5CD0F4A0009030123090B71
:100330001B0519430B4BED070024520D9A4201DABD
:10034000002070BD074B34339A4203DC9A1A00F048
:1003500045F802E00449511888402C43F1D040424E
:1003600070BD0000FF030000CDFBFFFFC20FD207EE
:10037000400040080BD0C10D0723DB01C918400223
:100380000905400A1143C208400711437047002085
:100390000146704710B5002904DB0124E407404200
:1003A0008C412146002B04DB1C460123DB07524213
:1003B000A3418B4200D1824210BD000010B5202A1B
:1003C00004DB0146203A9140002010BD91402023DB
:1003D0009C1A0346E3401943904010BD10B5202AF3
:1003E00004DB0846203AD040002110BD0B46D34024
:1003F000D0402024A21A91400843194610BD00297C
:1004000004DA401C490001D140084000704770B434
:100410000024050C05D11024000402D1002921D0AC
:100420001124050E01D100020834050F01D100018D
:10043000241D850F01D18000A41C002801DB400091
:10044000641C002908D020252E1B0D46F540A14034
:1004500000D001212943084301061B1B000ADB1DB4
:1004600002D5002070BC7047DB05181880180029E1
:10047000F8DA401C4900F5D170BC400840007047D4
:1004800010B5002B08DA0024401C614192185B4132
:100490001A4301D14008400010BDF0B51FB482B02E
:1004A00005460C0003D0084601F01BFD02E001F0F8
:1004B00018FD20300246009021462846FFF77EFFB7
:1004C000049B059A04460F4618431143084314D071
:1004D000184610431BD0009840210A1A1846059967
:1004E000FFF77CFF05460E46009A05990498FFF732
:1004F00065FF084305D0012004E02046394607B0D7
:10050000F0BD0020C11705430E432C43374300992B
:100510000E986305401A7905E40A00220C43FD0A8F
:100520000A3002D500200146E9E7010510196941AA
:100530000C9C0D9D00196941FFF7A2FFDFE7000049
:10054000064C0125064E05E0E36807CC2B430C3C26
:1005500098471034B442F7D3FFF7B4FD20200008C9
:1005600040200008F8B53D4C8620208020463E22E1
:100570003B491830FFF700FE394FF88F26464036CA
:10058000F08239464031204606220D465830FFF7AA
:10059000F3FDE888F0832046394660301522483163
:1005A0000646FFF7E9FD687F7075386EA06710207A
:1005B0006080052000070821606021810422E0603E
:1005C0002282284AE26725466061022280352A603D
:1005D0006A600022AA60EA602A616A61AA61EA612F
:1005E0002A626A62012200F095F9218A002260697C
:1005F00000F090F9012000F0CDF8218A0122606915
:1006000000F088F9052000F0C5F801212046AA680D
:1006100000F04AF802212046EA6800F045F804217B
:1006200020462A6900F040F8082120466A6900F057
:100630003BF801212046AA6900F016F80221204665
:10064000EA6900F011F8042120462A6A00F00CF84B
:10065000082120466A6A00F007F8F8BD040100206E
:10066000100000200000204010B5002A02D0012A0E
:100670000AD017E0012905D0022903D0042901D0AE
:1006800008290FD1002307E0012902D0022902D056
:1006900008E0012300E002230022052101F0FEFB17
:1006A000002800D0012010BD10B5002A06D0012A74
:1006B0000ED0102A15D0112A1CD029E0012905D00E
:1006C000022903D0042901D0082921D1002319E0EF
:1006D000012902D0022902D01AE0012312E00423EA
:1006E00010E0012902D0022902D011E0022309E022
:1006F000082307E0012902D0022902D008E00323E1
:1007000000E00C230022042101F0C8FB002800D0E7
:10071000012010BDF8B50446803015461E460F4630
:100720000068FFF7F3FDE16FFFF74AFDFFF71EFEDC
:100730002A463346FFF72EFE1FD30022104B2846D1
:100740003146FFF77BFDFFF7EDFD2188842904D0BA
:1007500085290DD086290DD00FE00A490BE083B220
:100760003A460321204601F099FB002805D1F8BD47
:10077000054900E005498842F1D90120F8BD000093
:100780008099C940FF0F0000FF3F0000FFFF0000FD
:1007900072B6FEE770B5044600F0C2F80546601C6C
:1007A00002D004480078241800F0BAF8401BA04298
:1007B000FAD370BD00000020FCB5002301259AE0AB
:1007C00022462C469C4022406FD04E68012E05D018
:1007D000022E03D0112E01D0122E16D186680327C7
:1007E000B4465E00B646B7406646BE43B446CF68E0
:1007F0007646B7406646374387604668A6430C791D
:10080000E406E40F9C4034434460C6685F00032460
:10081000BC40A446A6438C68BC403443C4604C68CA
:10082000022C01D0122C14D1DC08A400241801944D
:10083000266A5C07B646E60E0F24B440009676465C
:10084000A643B6460C69009EB44076462643019CFA
:10085000266204686646B4430E79B607B60FBE40FA
:10086000264306604C68E40044D59E08254CB6003B
:100870003419A446246E9E07F60E0F27B740BC43DA
:1008800005273F07B84201D1002710E01E4FB842AC
:1008900001D101270BE01D4FB84201D1022706E02C
:1008A0001B4FB84202D1032701E023E00527B740E0
:1008B000274364462766134E803634684F68944356
:1008C000FF0300D51443346074684F689443BF033A
:1008D00000D5144374600B4C26684F689643FF02A2
:1008E00000D51643266066684F689643BF0200D560
:1008F000164366605B1C0A681446DA4000D05FE766
:10090000FCBD000000180240000400500008005028
:10091000000C0050002A01D081617047816270474D
:10092000014880687047000000000020024881688C
:1009300002788918816070470000002010B50848CF
:1009400000240168821511430160204600F00AF876
:10095000002801D0012401E000F028F8204610BD55
:100960000020024070B50F4E002431780546002962
:1009700015D07D20C000FFF7B9FB01460A4800688A
:10098000FFF7B4FB00F0A6FD002808D1042D06D225
:1009900000222946401E00F023F8756000E0012483
:1009A000204670BD000000200C00002008B50B4858
:1009B000016801221143016000681040009007485F
:1009C0004038C26B01040A43C263C06B0840009008
:1009D0000320400200F074FD08BD000040100240FA
:1009E00010B501F095FA10BD10B50F4C2168032227
:1009F0005202914301432160C11FFF39FA390ED1E0
:100A00000A480621006848430949FFF76FFB401C6C
:100A100002E0002805D0401E61694905F9D4002094
:100A200010BD032010BD0000007000400C0000202D
:100A300040420F00FEB5044600680027704D714E1D
:100A4000800355D500200090F06BC00007D4F16BF7
:100A5000A8050143F163F16B0140012000906A4851
:100A60000168821511430160FFF75AFF019005E00C
:100A7000FFF756FF0199401A022825D862480068FE
:100A8000C005F5D5E8690321090208400FD0216BA4
:100A900081420CD0E86903210902EA6988430121F7
:100AA00009040A43EA61EA698A43EA61E861C00726
:100AB0000FD0FFF735FF019008E0FFF731FF0199F4
:100AC000411A5248814201D9032709E0E8698007A9
:100AD000F3D5E869032109028843216B0843E861E3
:100AE0000098002804D0F16B012000078143F163D6
:100AF0002078C00705D068696168800880000843D5
:100B000068612078800705D568690C218843A16851
:100B1000084368612078C00606D568690321890208
:100B20008843E168084368612088800506D56869C4
:100B3000032189048843A16908436861208840052E
:100B400006D56869032109058843E169084368619E
:100B50002078800606D56869032109038843216946
:100B600008436861208840040ED56869216A8000C6
:100B70008008084368610121206A8907884203D1FF
:100B8000F06889130843F0602068000305D56869A0
:100B900040218843616A08436861206881021C48DB
:100BA0000BD569698210A36A914319436961A16AEF
:100BB000914202D1F1680143F160216849020AD5EE
:100BC0006969E26A814311436961E16A814202D144
:100BD000F1680143F160208800050FD568690321A1
:100BE0008903884361690843686101216069890359
:100BF000884203D1F06889000843F0603846FEBDA2
:100C000040100240001002400070004088130000B5
:100C100000000001F8B50F46060043D04D4D28688E
:100C20004007400FB84213D22868C008C0003843BC
:100C30002860FFF775FE044605E0FFF771FE011B13
:100C40004548814261D828684007400FB842F4D136
:100C50003068424C81070DD5400704D5A0680721B4
:100C600009030843A060A0680F2109028843B16806
:100C70000843A0603078C00732D0706801280AD0DD
:100C800002280BD000280FD03449403103280ED061
:100C9000C969890704E02168890301E021688901A5
:100CA000002906DB0120F8BD21684905F8E7096A3B
:100CB000EFE7A168C908C9000143A160FFF730FE52
:100CC000009006E0FFF72CFE0099411A224881426D
:100CD0001BD8A068382108407168C9008842F1D14A
:100CE00028684007400FB84217D91A480168C90858
:100CF000C90039430160FFF713FE054607E0FFF71F
:100D00000FFE411B1448814201D90320F8BD114850
:100D100000684007400FB842F1D13078400706D54F
:100D2000A068072109038843F1680843A06000F028
:100D300031F8A1683C2289091140094A515CC90671
:100D4000C90EC8400749086007480068FFF70AFE57
:100D5000F8BD00000020024088130000001002408F
:100D6000C01F00080C0000200400002006480749AE
:100D700000688968064A4904490F8900515CC90620
:100D8000C90EC840704700000C000020001002404F
:100D90000020000810B5204CA068204A8006400FB3
:100DA00016D0A0688006410F501001290FD0A1680D
:100DB0008906490F022912D0A0688006400F042836
:100DC00023D0A0688006400F032821D0002010BD4A
:100DD000206801218004400F8140104612E0E16844
:100DE0008B07E1689B0F4906490F491C032B00D074
:100DF0001046FFF77BF9E1684904490E4843E16872
:100E0000490F491CFFF772F910BD0120C00310BD46
:100E10007D20000210BD0000001002400024F400FC
:100E2000F8B504007ED020783827C007EF4D0028A1
:100E300046D0A868E96838408907890F102802D091
:100E400008280BD001E0032908D0012062680004C3
:100E500082420AD129680143296015E0286880038D
:100E60002ED560680028DDD02AE0052301211B046F
:100E700089049A422A6802D10A432A60EAE7824337
:100E80002A60286888432860606800280CD0FFF733
:100E900047FD064604E0FFF743FD801B642873D836
:100EA00028688003F7D50BE0FFF73AFD064604E01B
:100EB000FFF736FD801B6428F1D828688003F7D43B
:100EC0002078800769D5A868E96838408A07072133
:100ED000920FC902102802D0002813D001E0022A84
:100EE00010D0E068002846D028688843216908436C
:100EF00028602868FF21013108432860FFF710FDB2
:100F000006462CE02A68520502D5E268002A89D0FC
:100F10006A687F231B029A4363691B021A436A6053
:100F2000002800E08DE00ED128688843216908433D
:100F30002860286801218004400F8140AC48FFF7F9
:100F4000D5F8AC490860AC480068FFF70BFD0028F5
:100F500077D122E0FFF7E4FC801B02289FD82868A5
:100F60004005F7D568687F21090288436169090255
:100F70000843686011E02968FF200130814329603F
:100F8000FFF7CEFC064605E098E0FFF7C9FC801BA2
:100F9000022884D828684005F7D42078974E0007A7
:100FA0002ED5A8688006400F03280AD0A069002823
:100FB000306A16D0012108433062FFF7B1FC0746C2
:100FC0000BE0306A80071BD5A06900289FD017E08E
:100FD000FFF7A6FCC01B022870D8306A8007F7D53F
:100FE0000EE0400840003062FFF79AFC074604E03C
:100FF000FFF796FCC01B022860D8306A8007F7D440
:10100000207840076CD5A86800278006400F042888
:1010100018D0E86BC00008D4E96B01200007014339
:10102000E963E96B01400127009175480168C90532
:1010300019D40168821511430160FFF771FC00901B
:101040000DE083E0F06980074AD5A06800287DD0D4
:1010500046E0FFF765FC0099401A02282ED8684840
:101060000068C005F5D5A168012910D00420052924
:10107000F16911D049084900F161F1698143F161D9
:10108000A068002816D0FFF74BFC00900EE0F06936
:1010900001210843F061F3E70143F161F7E7FFF74E
:1010A0003FFC0099411A574881426FD8F069800788
:1010B000F5D50EE0FFF734FC009007E066E0FFF79F
:1010C0002FFC0099411A4F4881425FD8F069800790
:1010D000F5D4002F04D0E86B012109078843E863A9
:1010E000E06900287FD0A9688906490F022953D0FA
:1010F00001263606022828680DD0B0432860E8682B
:1011000080088000E860E8683F490840E860FFF731
:1011100007FC04463CE0B0432860FFF701FC0746AB
:1011200004E0FFF7FDFBC01B02282FD828688001D0
:10113000F7D4616A206AA26A0843E16A1202114385
:101140000843216B0843616B084300E049E0E9680C
:101150002E4A11400843E860286830432860E86858
:10116000012109070843E860FFF7DAFB044604E0C1
:10117000FFF7D6FB001B022808D828688001F7D5A6
:1011800031E0FFF7CDFB001B022801D90320F8BD99
:1011900028688001F5D426E00128F8D0E868226AA2
:1011A0008107890F91421CD17021626A01409142EE
:1011B00017D17F21A26A090201401202914210D187
:1011C0001F214904E26A014091420AD107214906E0
:1011D000226B0140914204D1400F616B400788426D
:1011E00001D00120F8BD0020F8BD00000010024031
:1011F0000024F4000C0000200400002040100240F5
:101200000070004088130000FFFFFEEE8C80C111CB
:10121000F8B504000CD0606A002500280AD02561CA
:10122000656126464036A562707F002808D00BE035
:101230000120F8BD6168C81FFD38F2D0E561F0E714
:101240003577204600F05CF802227277206801684A
:101250004023994301600723E1681B02994201D9A9
:10126000002001E0012000030F273F02B94202D015
:10127000994200D0A562FF236168053319402127F8
:10128000A368BF023B40194323691340227D1943E1
:10129000D207D20F11430123A2695B021A40114306
:1012A000E26938231A401143226A80231A4011430D
:1012B000A26A9B011A40114322681160A1690422AD
:1012C000090C1140626A10231A401143626B082313
:1012D0001A4011430F23E2681B021A4011430122F6
:1012E000120310400143206841602068C169521018
:1012F0009143C1612566012070770020F8BD000090
:1013000010B586B0044614216846FEF74EFF124918
:10131000206888421ED11148026881140A43026085
:101320000068084005900D484038416B0122114388
:101330004163406B002110400590E02000900220A6
:101340000190032003900291049105206946000753
:10135000FFF732FA06B010BD0030014040100240E5
:10136000FFB5054604464035287F002781B0164664
:10137000012809D001202877FFF7D2FA0090687F72
:10138000012804D0022795E0022005B0F0BD0298A4
:10139000002872D0002E70D00320687700202066CD
:1013A0000299A163A687E6872064A880E88020656B
:1013B000E0640122A068D2034021904208D1206855
:1013C00002688A430260206802680B021A430260C6
:1013D00020680268520602D402680A4302600721AC
:1013E000E06809028842606826D9002801D0012EF1
:1013F0001ED1A06B21680088C86006E02068816863
:10140000890709D5A16B0988C160A06B801CA06306
:10141000E08F401EE0870BE0FFF782FA0099411A47
:101420000498814202D3401C02D039E0002837D012
:10143000E08F0028E2D126E0002801D0012E1FD144
:10144000A06B21680078087306E02068816889072E
:1014500009D5A16B09780173A06B401CA063E08FD4
:10146000401EE0870CE0FFF75BFA0099411A0498F0
:10147000814203D3401C03D012E01AE000280FD0B1
:10148000E08F0028E1D12046009A049900F09CF9F1
:10149000002801D020202066A068002802D005E0A6
:1014A000032707E02068C16880680090206E00284C
:1014B00000D001270120687700202877384664E7AC
:1014C00003490A6803235B029A4302430A60704798
:1014D00000000140094910B5401E884201D9012091
:1014E00010BD074C60610321081F00F011FD0020B2
:1014F000A06107202061002010BD0000FFFFFF0059
:1015000000E000E010B5014680310A78012A15D0CC
:1015100001220A7024224A60026813681468640871
:10152000640014600122520793430022426600685F
:101530000360202048600A70104610BD022010BDD4
:1015400070B5044605468034207801281AD0012061
:1015500020702420606028680668026852085200E3
:1015600002602868826807235B069A430A43826008
:10157000284600F05FFA286806602020606000209E
:10158000207070BD022070BD70B5044605468034E1
:101590002078012819D0012020702420606028685C
:1015A0000668026852085200026028688268D20009
:1015B000D2080A438260284600F03CFA2868066098
:1015C000202060600020207070BD022070BD70B5CA
:1015D000040005D0254680356868002802D006E062
:1015E000012070BD00202870204600F027F824203C
:1015F000686020680168490849000160204600F0E1
:10160000E1FA0128EDD0A06A002802D0204600F0BF
:1016100041FA206841680922D20291434160206862
:1016200081682A2291438160206801680122114368
:101630000160204600F094FA70BD000010B586B03D
:10164000044614216846FEF7B0FD1149206888421F
:101650001CD11048C26B012149040A43C263C26B0A
:101660000A400592426B08210A434263406B0840DE
:10167000059060200090022000210190032002913B
:101680000491039069460448FFF796F806B010BD30
:101690000044004000100240000C0050FEE7000033
:1016A00030B587B014216846FEF77FFD1748426BBE
:1016B00004210A434263426B0A400592426B202197
:1016C0000A434263426B0A400592416B0124214365
:1016D0004163416B21400591426B08210A434263FB
:1016E000406B052508402D07059022461C21284601
:1016F000FFF710F91C20009003200390019402943E
:1017000069462846FFF758F807B030BD0010024080
:1017100010B511480F490160FF21053141600021DA
:101720000722816012020161C260012241615202FE
:10173000826101624162082281620723C261C36241
:1017400042630163FFF764FD002801D0FFF720F832
:1017500010BD0000003001401000002010B51848F6
:1017600016490160E1214902416000218160C160A8
:1017700001618161C16101620C2241624261816249
:10178000FFF725FF002801D0FFF702F800210C48E1
:10179000FFF7FAFE002801D0FEF7FAFF0021084803
:1017A000FFF7CEFE002801D0FEF7F2FF0448FFF756
:1017B000A9FE002801D0FEF7EBFF10BD0044004059
:1017C00074000020FEE77047F8B50F460B4615463B
:1017D0000092032104460022C90200F01BF82026D3
:1017E000002812D13B46002280212046009500F0BF
:1017F00073F8002809D103213B4600224902204604
:10180000009500F007F8002803D0206E30432066D2
:101810000320F8BDFFB583B017460E4604460C9D65
:10182000FFF77EF8411B0698451AFFF779F80190FB
:101830002848232100684843000D684342E0032103
:1018400049028E4202D1002F00D1007B0698401C35
:1018500039D0FFF765F80199401AA84205D2002D4A
:1018600003D0009800282BD02BE020684168E022AC
:10187000914341606068C11FFD390CD10121A0680E
:10188000C903884202D04911884204D12068016806
:101890004022914301600120A16A4003814207D1A7
:1018A00021680A6882430A6021680A6802430A6064
:1018B00001204034607700202077032007B0F0BD7E
:1018C0000025401E0090206881683140B942B6D1A1
:1018D0000020F3E70C000020FFB581B01E4604464F
:1018E0000A9DFFF71DF8401B351AFFF719F8074648
:1018F000264800684001000D684339E0701C38D06C
:10190000FFF70EF8C01BA84205D2002D03D00098A7
:1019100000282BD02BE020684168E02291434160F1
:101920006068C11FFD390CD10121A068C90388423C
:1019300002D04911884204D12068016840229143B5
:1019400001600120A16A4003814207D121680A6831
:1019500082430A6021680A6802430A600120403419
:10196000607700202077032005B0F0BD0025401EE1
:101970000090206881680298884305D00021039870
:101980008142BBD10020EFE70121F8E70C000020E5
:10199000704710B5FEF7CAFF10BD30B59FB03821B3
:1019A0006846FEF702FC00241B941C941D9434210D
:1019B0000EA81E94FEF7F9FB01204002FFF714F871
:1019C0000225E801039000954020059010200A9020
:1019D00040030B90079500020C90032008954007E8
:1019E00004940D9009946846FFF71AFA002801D074
:1019F00072B6FEE707201B901D9402211C951E94D1
:101A00001BA8FFF707F9002801D072B6FEE70EA861
:101A10000E951094FFF70EF8002801D072B6FEE77D
:101A20001FB030BD01200249C00688607047000029
:101A300000ED00E0F0B513A106C985B00192009158
:101A400012A206CA039202910446416E4034002954
:101A500015D000688168806809014D0F400F02AE03
:101A6000315C6F46385CC000FEF740FB6085785DF6
:101A7000715DC000FEF73AFB208505B0F0BD012086
:101A80006085F9E701010103070100000804020471
:101A90000801010110B5018DC90707D001684A6826
:101AA00001235B049A43C36A1A434A60018D890784
:101AB00007D501684A6801231B049A43036B1A4344
:101AC0004A60018D490707D501684A6801239B04D4
:101AD0009A43436B1A434A60018D090707D5016891
:101AE0004A680123DB039A43836B1A434A60018DE2
:101AF000C90607D50268916801231B039943C36B8C
:101B000019439160018D890607D501688A68012310
:101B10005B039A43036C1A438A60018D490612D510
:101B200003685A6801210905446C8A4322435A60BC
:101B3000426C8A4207D10268516803235B059943CE
:101B4000836C19435160018D090607D501684A6805
:101B50000123DB04C06C9A4302434A6010BD0000BD
:101B6000FEB50546002680350446EE60FEF7D8FE39
:101B7000019020680068124F000709D501210097E5
:101B8000002249052046019B00F03AF900280DD1BA
:101B90002068006840070BD50121009700228905C5
:101BA0002046019B00F02CF9002801D00320FEBD47
:101BB00020206860A860E6662E700020FEBD000050
:101BC000FFFFFF01F8B504462269A168E5691143EA
:101BD000626900262A431143626E00680A437C4B07
:101BE00001687C4D2940114301602068416803224F
:101BF00012039143E268114341602168A069994250
:101C000001D0226A10438A68734D2A4002438A60D9
:101C10002068C16A626A090909011143C1626F49FA
:101C200022686F488A420AD140698007800F1AD023
:101C300001283DD0022839D0032827D124E0694962
:101C40008A420AD140690C2108400CD004282FD0C8
:101C500008282BD00C2819D116E063498A4202D0FB
:101C600062498A4201D1002111E09A420ED14169B4
:101C70000320800201400AD001208002091A17D0F7
:101C8000091A13D0814201D1082100E0102101205E
:101C9000574D584FC0039A423BD100290AD0022920
:101CA00011D0042909D008297ED10BE00221EEE7EA
:101CB0000421ECE7FFF75AF801E0FFF76BF80500A5
:101CC00001D17AE00546606A4000395A2846009101
:101CD000FEF70CFA676879007918814269D83903F0
:101CE000814266D3002328461946009AFEF714FA6B
:101CF000020E09020302780811431818002251410C
:101D00003A460023FEF708FA03210902411A3A4A2B
:101D10004DE0E269824228D1002906D0022907D08D
:101D2000042907D0082944D108E0FFF71FF803E091
:101D3000284603E0FFF72EF800283ED0616A4900EC
:101D4000795AFEF7D3F9616840004A088018FEF717
:101D5000CDF980B202462949103A8A4229D8491C55
:101D600001400007400F084325E0002906D0022962
:101D700007D0042907D008291BD108E0FEF7F6FF99
:101D800003E0284603E0FFF705F8002815D0616A54
:101D90004900795AFEF7AAF961684A088018FEF7E7
:101DA000A5F980B2014600E003E0144A10399142DF
:101DB00001D9012601E02168C86020460121403098
:101DC000418501850020206760673046F8BD00002E
:101DD00000800040F369FFCFFFF4FF11003801409D
:101DE000401002400044004000480040004C0040C9
:101DF0000024F400A81F0008FFFC0F00EFFF000004
:101E0000FFB581B005460F46044680350A9E38E08E
:101E1000701C36D0FEF784FD0499401AB04221D8D8
:101E2000002E1FD02068016849072AD5C069C04329
:101E3000000526D401202168C002086220680168DC
:101E4000FF22A1329143016020688168490849005E
:101E5000816020206860A860E8600020287003206E
:101E600005B0F0BD20680168FF22A13291430160F6
:101E70002068816849084900816020206860A86066
:101E8000EBE72068C1693846884305D000210398F4
:101E90008142BDD00020E3E70121F8E738B50446D0
:101EA000002000900801104369460870180A487025
:101EB0008B70618800226068FEF72CFD7D23204630
:101EC000DB00032269461830FFF74AFA002801D0E8
:101ED000012038BD618801226068FEF71BFD0020EB
:101EE00038BD2021020C01D010211046020A01D079
:101EF00010460839020901D01046091F820801D096
:101F00001046891E420801D0881E7047081A704783
:101F10008307FF22DB0E9A408907090E99400028AB
:101F200008DB830809489B001B1818689043084386
:101F3000186070470007000F0838830804489B00AA
:101F40001B18D86990430843D861704700E400E04B
:101F500000ED00E002E008C8121F08C1002AFAD113
:101F600070477047002001E001C1121F002AFBD119
:101F700070470000FEF7E2FCFFF70FFDFFF790FB54
:101F8000FFF7C6FBFFF7EAFBFEF7ECFA034A044B48
:101F900001210448FEF7BEFBFEE70000CBA145B6D9
:101FA000F37D10400401002001000200040006003F
:101FB00008000A000C001000200040008000000112
:101FC0000000000000000000000000000000000011
:101FD0000000000000000000000000000000000001
:101FE00001000000020000000300000004000000E7
:101FF00006000000070000000800000009000000C3
:1020000000000000000000000000000000000000D0
:1020100001000000020000000300000004000000B6
:10202000402000080000002010000000541F00089D
:102030005020000810000020A0050000641F0008C8
:102040000100000004000000000000000024F40073
:04000005080000BD32
:00000001FF
